:1000000014C019C018C017C016C015C014C013C042
:1000100012C011C010C00FC00EC00DC00CC00BC06C
:100020000AC009C008C007C006C011241FBECFED1A
:10003000CDBF15D03AC0E4CFB89AB99ABA9ABB9A54
:10004000BC9ABD9ABE9ABF9AD19A8E9A8B9A8C9A74
:10005000899A889A8D988A98949A919A0895ECDF53
:10006000859908C0949AC09AC19AC39AC49AC69AAC
:10007000C29808C095989498C19AC29AC098C3989B
:10008000C498C698829908C0919AC59AC19A939AC1
:10009000909AD99AC798E4CF92989198C19AC79AA2
:0E00A000C59893989098D998DBCFF894FFCF2D
:00000001FF
