:1000000012C022C021C020C01FC01EC01DC01CC005
:100010001BC01AC019C018C017C016C015C014C024
:1000200013C012C011C011241FBECFEDCDBF10E010
:10003000A0E6B0E0E0E8F0E002C005900D92A23644
:10004000B107D9F70FD01AC0DBCFB89AB99ABA9ACC
:10005000BB9ABC9ABD9ABE9ABF9A8E9A8C9A8D987A
:10006000949A0895F2DF9BE586E0859903C0949AFF
:1000700098BBFBCF9598949888BBF7CFF894FFCFA7
:02008000065B1D
:00000001FF
